{
  "contractName": "Dex",
  "abi": [
    {
      "anonymous": false,
      "inputs": [
        {
          "indexed": true,
          "internalType": "address",
          "name": "previousOwner",
          "type": "address"
        },
        {
          "indexed": true,
          "internalType": "address",
          "name": "newOwner",
          "type": "address"
        }
      ],
      "name": "OwnershipTransferred",
      "type": "event"
    },
    {
      "inputs": [
        {
          "internalType": "bytes32",
          "name": "_ticker",
          "type": "bytes32"
        },
        {
          "internalType": "uint256",
          "name": "_ammount",
          "type": "uint256"
        }
      ],
      "name": "Deposit",
      "outputs": [],
      "stateMutability": "nonpayable",
      "type": "function"
    },
    {
      "inputs": [
        {
          "internalType": "bytes32",
          "name": "_ticker",
          "type": "bytes32"
        },
        {
          "internalType": "address",
          "name": "_tokenAddress",
          "type": "address"
        }
      ],
      "name": "addToken",
      "outputs": [],
      "stateMutability": "nonpayable",
      "type": "function"
    },
    {
      "inputs": [
        {
          "internalType": "address",
          "name": "",
          "type": "address"
        },
        {
          "internalType": "bytes32",
          "name": "",
          "type": "bytes32"
        }
      ],
      "name": "balances",
      "outputs": [
        {
          "internalType": "uint256",
          "name": "",
          "type": "uint256"
        }
      ],
      "stateMutability": "view",
      "type": "function",
      "constant": true
    },
    {
      "inputs": [],
      "name": "depositEth",
      "outputs": [],
      "stateMutability": "payable",
      "type": "function",
      "payable": true
    },
    {
      "inputs": [],
      "name": "owner",
      "outputs": [
        {
          "internalType": "address",
          "name": "",
          "type": "address"
        }
      ],
      "stateMutability": "view",
      "type": "function",
      "constant": true
    },
    {
      "inputs": [],
      "name": "renounceOwnership",
      "outputs": [],
      "stateMutability": "nonpayable",
      "type": "function"
    },
    {
      "inputs": [
        {
          "internalType": "uint256",
          "name": "",
          "type": "uint256"
        }
      ],
      "name": "tokenList",
      "outputs": [
        {
          "internalType": "bytes32",
          "name": "",
          "type": "bytes32"
        }
      ],
      "stateMutability": "view",
      "type": "function",
      "constant": true
    },
    {
      "inputs": [
        {
          "internalType": "bytes32",
          "name": "",
          "type": "bytes32"
        }
      ],
      "name": "tokenMapping",
      "outputs": [
        {
          "internalType": "bytes32",
          "name": "ticker",
          "type": "bytes32"
        },
        {
          "internalType": "address",
          "name": "tokenAddress",
          "type": "address"
        }
      ],
      "stateMutability": "view",
      "type": "function",
      "constant": true
    },
    {
      "inputs": [
        {
          "internalType": "address",
          "name": "newOwner",
          "type": "address"
        }
      ],
      "name": "transferOwnership",
      "outputs": [],
      "stateMutability": "nonpayable",
      "type": "function"
    },
    {
      "inputs": [],
      "name": "unique_id",
      "outputs": [
        {
          "internalType": "uint256",
          "name": "",
          "type": "uint256"
        }
      ],
      "stateMutability": "view",
      "type": "function",
      "constant": true
    },
    {
      "inputs": [
        {
          "internalType": "uint256",
          "name": "ammount",
          "type": "uint256"
        },
        {
          "internalType": "bytes32",
          "name": "ticker",
          "type": "bytes32"
        }
      ],
      "name": "withdraw",
      "outputs": [],
      "stateMutability": "nonpayable",
      "type": "function"
    },
    {
      "inputs": [
        {
          "internalType": "bytes32",
          "name": "ticker",
          "type": "bytes32"
        },
        {
          "internalType": "enum Dex.Side",
          "name": "side",
          "type": "uint8"
        }
      ],
      "name": "getOrderBook",
      "outputs": [
        {
          "components": [
            {
              "internalType": "uint256",
              "name": "id",
              "type": "uint256"
            },
            {
              "internalType": "address",
              "name": "trader",
              "type": "address"
            },
            {
              "internalType": "enum Dex.Side",
              "name": "side",
              "type": "uint8"
            },
            {
              "internalType": "uint256",
              "name": "ammount",
              "type": "uint256"
            },
            {
              "internalType": "uint256",
              "name": "price",
              "type": "uint256"
            }
          ],
          "internalType": "struct Dex.Order[]",
          "name": "",
          "type": "tuple[]"
        }
      ],
      "stateMutability": "view",
      "type": "function",
      "constant": true
    },
    {
      "inputs": [
        {
          "internalType": "enum Dex.Side",
          "name": "side",
          "type": "uint8"
        },
        {
          "internalType": "bytes32",
          "name": "ticker",
          "type": "bytes32"
        },
        {
          "internalType": "uint256",
          "name": "ammount",
          "type": "uint256"
        },
        {
          "internalType": "uint256",
          "name": "price",
          "type": "uint256"
        }
      ],
      "name": "createLimitOrder",
      "outputs": [],
      "stateMutability": "nonpayable",
      "type": "function"
    }
  ],
  "bytecode": "0x6080604052600060045534801561001557600080fd5b5060006100266100c960201b60201c565b9050806000806101000a81548173ffffffffffffffffffffffffffffffffffffffff021916908373ffffffffffffffffffffffffffffffffffffffff1602179055508073ffffffffffffffffffffffffffffffffffffffff16600073ffffffffffffffffffffffffffffffffffffffff167f8be0079c531659141344cd1fd0a4f28419497f9722a3daafe3b4186f6b6457e060405160405180910390a3506100d1565b600033905090565b61210b806100e06000396000f3fe6080604052600436106100c25760003560e01c80639776aacf1161007f578063a8d2021a11610059578063a8d2021a14610246578063ba58ea681461026f578063d2e9dab8146102ac578063f2fde38b146102d7576100c2565b80639776aacf146101b757806398e783c3146101e05780639ead722214610209576100c2565b80631f14df69146100c7578063439370b114610104578063667cb4ba1461010e5780636f3b62f91461014c578063715018a6146101755780638da5cb5b1461018c575b600080fd5b3480156100d357600080fd5b506100ee60048036038101906100e99190611bca565b610300565b6040516100fb9190611f64565b60405180910390f35b61010c610325565b005b34801561011a57600080fd5b5061013560048036038101906101309190611c06565b61041e565b604051610143929190611f3b565b60405180910390f35b34801561015857600080fd5b50610173600480360381019061016e9190611ce3565b610462565b005b34801561018157600080fd5b5061018a610ce3565b005b34801561019857600080fd5b506101a1610e50565b6040516101ae9190611ee3565b60405180910390f35b3480156101c357600080fd5b506101de60048036038101906101d99190611c2f565b610e79565b005b3480156101ec57600080fd5b5061020760048036038101906102029190611ca7565b610fe7565b005b34801561021557600080fd5b50610230600480360381019061022b9190611d46565b61132b565b60405161023d9190611f20565b60405180910390f35b34801561025257600080fd5b5061026d60048036038101906102689190611d6f565b61134f565b005b34801561027b57600080fd5b5061029660048036038101906102919190611c6b565b61168c565b6040516102a39190611efe565b60405180910390f35b3480156102b857600080fd5b506102c16117bc565b6040516102ce9190611f64565b60405180910390f35b3480156102e357600080fd5b506102fe60048036038101906102f99190611ba1565b6117c2565b005b6003602052816000526040600020602052806000526040600020600091509150505481565b6103a834600360003373ffffffffffffffffffffffffffffffffffffffff1673ffffffffffffffffffffffffffffffffffffffff16815260200190815260200160002060007f45544800000000000000000000000000000000000000000000000000000000008152602001908152602001600020546119b490919063ffffffff16565b600360003373ffffffffffffffffffffffffffffffffffffffff1673ffffffffffffffffffffffffffffffffffffffff16815260200190815260200160002060007f4554480000000000000000000000000000000000000000000000000000000000815260200190815260200160002081905550565b60016020528060005260406000206000915090508060000154908060010160009054906101000a900473ffffffffffffffffffffffffffffffffffffffff16905082565b6000600181111561046f57fe5b84600181111561047b57fe5b1415610515576104948183611a3c90919063ffffffff16565b600360003373ffffffffffffffffffffffffffffffffffffffff1673ffffffffffffffffffffffffffffffffffffffff16815260200190815260200160002060007f4554480000000000000000000000000000000000000000000000000000000000815260200190815260200160002054101561051057600080fd5b610592565b60018081111561052157fe5b84600181111561052d57fe5b14156105915781600360003373ffffffffffffffffffffffffffffffffffffffff1673ffffffffffffffffffffffffffffffffffffffff168152602001908152602001600020600085815260200190815260200160002054101561059057600080fd5b5b5b60006005600085815260200190815260200160002060008660018111156105b557fe5b81526020019081526020016000209050806040518060a0016040528060045481526020013373ffffffffffffffffffffffffffffffffffffffff16815260200187600181111561060157fe5b81526020018581526020018481525090806001815401808255809150506001900390600052602060002090600402016000909190919091506000820151816000015560208201518160010160006101000a81548173ffffffffffffffffffffffffffffffffffffffff021916908373ffffffffffffffffffffffffffffffffffffffff16021790555060408201518160010160146101000a81548160ff021916908360018111156106ae57fe5b021790555060608201518160020155608082015181600301555050600060018111156106d657fe5b8560018111156106e257fe5b14156109e45760005b60018280549050038110156109de5760005b816001848054905003038110156109d05782600182018154811061071d57fe5b90600052602060002090600402016003015483828154811061073b57fe5b90600052602060002090600402016003015410156109c357600083828154811061076157fe5b90600052602060002090600402016040518060a0016040529081600082015481526020016001820160009054906101000a900473ffffffffffffffffffffffffffffffffffffffff1673ffffffffffffffffffffffffffffffffffffffff1673ffffffffffffffffffffffffffffffffffffffff1681526020016001820160149054906101000a900460ff1660018111156107f857fe5b600181111561080357fe5b815260200160028201548152602001600382015481525050905083600183018154811061082c57fe5b906000526020600020906004020184838154811061084657fe5b9060005260206000209060040201600082015481600001556001820160009054906101000a900473ffffffffffffffffffffffffffffffffffffffff168160010160006101000a81548173ffffffffffffffffffffffffffffffffffffffff021916908373ffffffffffffffffffffffffffffffffffffffff1602179055506001820160149054906101000a900460ff168160010160146101000a81548160ff021916908360018111156108f657fe5b021790555060028201548160020155600382015481600301559050508084600184018154811061092257fe5b90600052602060002090600402016000820151816000015560208201518160010160006101000a81548173ffffffffffffffffffffffffffffffffffffffff021916908373ffffffffffffffffffffffffffffffffffffffff16021790555060408201518160010160146101000a81548160ff021916908360018111156109a557fe5b02179055506060820151816002015560808201518160030155905050505b80806001019150506106fd565b5080806001019150506106eb565b50610cdc565b60005b6001828054905003811015610cda5760005b81600184805490500303811015610ccc57826001820181548110610a1957fe5b906000526020600020906004020160030154838281548110610a3757fe5b9060005260206000209060040201600301541115610cbf576000838281548110610a5d57fe5b90600052602060002090600402016040518060a0016040529081600082015481526020016001820160009054906101000a900473ffffffffffffffffffffffffffffffffffffffff1673ffffffffffffffffffffffffffffffffffffffff1673ffffffffffffffffffffffffffffffffffffffff1681526020016001820160149054906101000a900460ff166001811115610af457fe5b6001811115610aff57fe5b8152602001600282015481526020016003820154815250509050836001830181548110610b2857fe5b9060005260206000209060040201848381548110610b4257fe5b9060005260206000209060040201600082015481600001556001820160009054906101000a900473ffffffffffffffffffffffffffffffffffffffff168160010160006101000a81548173ffffffffffffffffffffffffffffffffffffffff021916908373ffffffffffffffffffffffffffffffffffffffff1602179055506001820160149054906101000a900460ff168160010160146101000a81548160ff02191690836001811115610bf257fe5b0217905550600282015481600201556003820154816003015590505080846001840181548110610c1e57fe5b90600052602060002090600402016000820151816000015560208201518160010160006101000a81548173ffffffffffffffffffffffffffffffffffffffff021916908373ffffffffffffffffffffffffffffffffffffffff16021790555060408201518160010160146101000a81548160ff02191690836001811115610ca157fe5b02179055506060820151816002015560808201518160030155905050505b80806001019150506109f9565b5080806001019150506109e7565b505b5050505050565b610ceb611ac2565b73ffffffffffffffffffffffffffffffffffffffff16610d09610e50565b73ffffffffffffffffffffffffffffffffffffffff1614610d92576040517f08c379a00000000000000000000000000000000000000000000000000000000081526004018080602001828103825260208152602001807f4f776e61626c653a2063616c6c6572206973206e6f7420746865206f776e657281525060200191505060405180910390fd5b600073ffffffffffffffffffffffffffffffffffffffff1660008054906101000a900473ffffffffffffffffffffffffffffffffffffffff1673ffffffffffffffffffffffffffffffffffffffff167f8be0079c531659141344cd1fd0a4f28419497f9722a3daafe3b4186f6b6457e060405160405180910390a360008060006101000a81548173ffffffffffffffffffffffffffffffffffffffff021916908373ffffffffffffffffffffffffffffffffffffffff160217905550565b60008060009054906101000a900473ffffffffffffffffffffffffffffffffffffffff16905090565b610e81611ac2565b73ffffffffffffffffffffffffffffffffffffffff16610e9f610e50565b73ffffffffffffffffffffffffffffffffffffffff1614610f28576040517f08c379a00000000000000000000000000000000000000000000000000000000081526004018080602001828103825260208152602001807f4f776e61626c653a2063616c6c6572206973206e6f7420746865206f776e657281525060200191505060405180910390fd5b60405180604001604052808381526020018273ffffffffffffffffffffffffffffffffffffffff16815250600160008481526020019081526020016000206000820151816000015560208201518160010160006101000a81548173ffffffffffffffffffffffffffffffffffffffff021916908373ffffffffffffffffffffffffffffffffffffffff16021790555090505060028290806001815401808255809150506001900390600052602060002001600090919091909150555050565b610fef611ac2565b73ffffffffffffffffffffffffffffffffffffffff1661100d610e50565b73ffffffffffffffffffffffffffffffffffffffff1614611096576040517f08c379a00000000000000000000000000000000000000000000000000000000081526004018080602001828103825260208152602001807f4f776e61626c653a2063616c6c6572206973206e6f7420746865206f776e657281525060200191505060405180910390fd5b600073ffffffffffffffffffffffffffffffffffffffff166001600084815260200190815260200160002060010160009054906101000a900473ffffffffffffffffffffffffffffffffffffffff1673ffffffffffffffffffffffffffffffffffffffff16141561116f576040517f08c379a00000000000000000000000000000000000000000000000000000000081526004018080602001828103825260138152602001807f746f6b656e206973206e6f74206c69737465640000000000000000000000000081525060200191505060405180910390fd5b6001600083815260200190815260200160002060010160009054906101000a900473ffffffffffffffffffffffffffffffffffffffff1673ffffffffffffffffffffffffffffffffffffffff166323b872dd3330846040518463ffffffff1660e01b8152600401808473ffffffffffffffffffffffffffffffffffffffff1681526020018373ffffffffffffffffffffffffffffffffffffffff1681526020018281526020019350505050602060405180830381600087803b15801561123457600080fd5b505af1158015611248573d6000803e3d6000fd5b505050506040513d602081101561125e57600080fd5b8101908080519060200190929190505050506112d381600360003373ffffffffffffffffffffffffffffffffffffffff1673ffffffffffffffffffffffffffffffffffffffff1681526020019081526020016000206000858152602001908152602001600020546119b490919063ffffffff16565b600360003373ffffffffffffffffffffffffffffffffffffffff1673ffffffffffffffffffffffffffffffffffffffff1681526020019081526020016000206000848152602001908152602001600020819055505050565b6002818154811061133b57600080fd5b906000526020600020016000915090505481565b600073ffffffffffffffffffffffffffffffffffffffff166001600083815260200190815260200160002060010160009054906101000a900473ffffffffffffffffffffffffffffffffffffffff1673ffffffffffffffffffffffffffffffffffffffff161415611428576040517f08c379a00000000000000000000000000000000000000000000000000000000081526004018080602001828103825260138152602001807f746f6b656e206973206e6f74206c69737465640000000000000000000000000081525060200191505060405180910390fd5b81600360003373ffffffffffffffffffffffffffffffffffffffff1673ffffffffffffffffffffffffffffffffffffffff16815260200190815260200160002060008381526020019081526020016000205410156114ee576040517f08c379a00000000000000000000000000000000000000000000000000000000081526004018080602001828103825260198152602001807f62616c616e6365206973206e6f742073756666696369656e740000000000000081525060200191505060405180910390fd5b61155182600360003373ffffffffffffffffffffffffffffffffffffffff1673ffffffffffffffffffffffffffffffffffffffff168152602001908152602001600020600084815260200190815260200160002054611aca90919063ffffffff16565b600360003373ffffffffffffffffffffffffffffffffffffffff1673ffffffffffffffffffffffffffffffffffffffff1681526020019081526020016000206000838152602001908152602001600020819055506001600082815260200190815260200160002060010160009054906101000a900473ffffffffffffffffffffffffffffffffffffffff1673ffffffffffffffffffffffffffffffffffffffff1663a9059cbb33846040518363ffffffff1660e01b8152600401808373ffffffffffffffffffffffffffffffffffffffff16815260200182815260200192505050602060405180830381600087803b15801561164c57600080fd5b505af1158015611660573d6000803e3d6000fd5b505050506040513d602081101561167657600080fd5b8101908080519060200190929190505050505050565b60606005600084815260200190815260200160002060008360018111156116af57fe5b8152602001908152602001600020805480602002602001604051908101604052809291908181526020016000905b828210156117b057838290600052602060002090600402016040518060a0016040529081600082015481526020016001820160009054906101000a900473ffffffffffffffffffffffffffffffffffffffff1673ffffffffffffffffffffffffffffffffffffffff1673ffffffffffffffffffffffffffffffffffffffff1681526020016001820160149054906101000a900460ff16600181111561177e57fe5b600181111561178957fe5b815260200160028201548152602001600382015481525050815260200190600101906116dd565b50505050905092915050565b60045481565b6117ca611ac2565b73ffffffffffffffffffffffffffffffffffffffff166117e8610e50565b73ffffffffffffffffffffffffffffffffffffffff1614611871576040517f08c379a00000000000000000000000000000000000000000000000000000000081526004018080602001828103825260208152602001807f4f776e61626c653a2063616c6c6572206973206e6f7420746865206f776e657281525060200191505060405180910390fd5b600073ffffffffffffffffffffffffffffffffffffffff168173ffffffffffffffffffffffffffffffffffffffff1614156118f7576040517f08c379a000000000000000000000000000000000000000000000000000000000815260040180806020018281038252602681526020018061208f6026913960400191505060405180910390fd5b8073ffffffffffffffffffffffffffffffffffffffff1660008054906101000a900473ffffffffffffffffffffffffffffffffffffffff1673ffffffffffffffffffffffffffffffffffffffff167f8be0079c531659141344cd1fd0a4f28419497f9722a3daafe3b4186f6b6457e060405160405180910390a3806000806101000a81548173ffffffffffffffffffffffffffffffffffffffff021916908373ffffffffffffffffffffffffffffffffffffffff16021790555050565b600080828401905083811015611a32576040517f08c379a000000000000000000000000000000000000000000000000000000000815260040180806020018281038252601b8152602001807f536166654d6174683a206164646974696f6e206f766572666c6f77000000000081525060200191505060405180910390fd5b8091505092915050565b600080831415611a4f5760009050611abc565b6000828402905082848281611a6057fe5b0414611ab7576040517f08c379a00000000000000000000000000000000000000000000000000000000081526004018080602001828103825260218152602001806120b56021913960400191505060405180910390fd5b809150505b92915050565b600033905090565b600082821115611b42576040517f08c379a000000000000000000000000000000000000000000000000000000000815260040180806020018281038252601e8152602001807f536166654d6174683a207375627472616374696f6e206f766572666c6f77000081525060200191505060405180910390fd5b818303905092915050565b600081359050611b5c81612039565b92915050565b600081359050611b7181612050565b92915050565b600081359050611b8681612067565b92915050565b600081359050611b9b81612077565b92915050565b600060208284031215611bb357600080fd5b6000611bc184828501611b4d565b91505092915050565b60008060408385031215611bdd57600080fd5b6000611beb85828601611b4d565b9250506020611bfc85828601611b62565b9150509250929050565b600060208284031215611c1857600080fd5b6000611c2684828501611b62565b91505092915050565b60008060408385031215611c4257600080fd5b6000611c5085828601611b62565b9250506020611c6185828601611b4d565b9150509250929050565b60008060408385031215611c7e57600080fd5b6000611c8c85828601611b62565b9250506020611c9d85828601611b77565b9150509250929050565b60008060408385031215611cba57600080fd5b6000611cc885828601611b62565b9250506020611cd985828601611b8c565b9150509250929050565b60008060008060808587031215611cf957600080fd5b6000611d0787828801611b77565b9450506020611d1887828801611b62565b9350506040611d2987828801611b8c565b9250506060611d3a87828801611b8c565b91505092959194509250565b600060208284031215611d5857600080fd5b6000611d6684828501611b8c565b91505092915050565b60008060408385031215611d8257600080fd5b6000611d9085828601611b8c565b9250506020611da185828601611b62565b9150509250929050565b6000611db78383611e5d565b60a08301905092915050565b611dcc81611fb8565b82525050565b611ddb81611fb8565b82525050565b6000611dec82611f8f565b611df68185611fa7565b9350611e0183611f7f565b8060005b83811015611e32578151611e198882611dab565b9750611e2483611f9a565b925050600181019050611e05565b5085935050505092915050565b611e4881611fca565b82525050565b611e5781612011565b82525050565b60a082016000820151611e736000850182611ec5565b506020820151611e866020850182611dc3565b506040820151611e996040850182611e4e565b506060820151611eac6060850182611ec5565b506080820151611ebf6080850182611ec5565b50505050565b611ece81612007565b82525050565b611edd81612007565b82525050565b6000602082019050611ef86000830184611dd2565b92915050565b60006020820190508181036000830152611f188184611de1565b905092915050565b6000602082019050611f356000830184611e3f565b92915050565b6000604082019050611f506000830185611e3f565b611f5d6020830184611dd2565b9392505050565b6000602082019050611f796000830184611ed4565b92915050565b6000819050602082019050919050565b600081519050919050565b6000602082019050919050565b600082825260208201905092915050565b6000611fc382611fe7565b9050919050565b6000819050919050565b6000819050611fe282612025565b919050565b600073ffffffffffffffffffffffffffffffffffffffff82169050919050565b6000819050919050565b600061201c82611fd4565b9050919050565bfe5b6002811061203657612035612023565b5b50565b61204281611fb8565b811461204d57600080fd5b50565b61205981611fca565b811461206457600080fd5b50565b6002811061207457600080fd5b50565b61208081612007565b811461208b57600080fd5b5056fe4f776e61626c653a206e6577206f776e657220697320746865207a65726f2061646472657373536166654d6174683a206d756c7469706c69636174696f6e206f766572666c6f77a2646970667358221220d10b6f18a26f603c8cbb220587b3807a2e49c03eb2d8d295f2726e275d02c82264736f6c63430007060033",
  "immutableReferences": {},
  "source": "pragma solidity >=0.6.0 <0.8.0;\npragma experimental ABIEncoderV2;\nimport './Wallet.sol';\nimport '../node_modules/@openzeppelin/contracts/math/SafeMath.sol';\ncontract Dex is Wallet{\n    using SafeMath for uint256;\n    enum Side{\n        BUY,\n        SELL\n    }\n    uint256 public unique_id=0;\n    struct Order{\n        uint id;\n        address trader;\n        Side side;\n        uint ammount;\n        uint price;\n    }\n    mapping(bytes32=>mapping(uint=>Order[])) orderBook;\n    function getOrderBook(bytes32 ticker,Side side) public view returns(Order[] memory){\n        return orderBook[ticker][uint(side)];\n    }\n    function createLimitOrder(Side side,bytes32 ticker,uint ammount,uint price) public{\n        if(side==Side.BUY){\n            require(balances[msg.sender]['ETH']>=ammount.mul(price));\n        }\n        else if(side==Side.SELL){\n            require(balances[msg.sender][ticker]>=ammount);\n        }\n        Order[] storage _order=orderBook[ticker][uint(side)];\n        _order.push(Order(unique_id,msg.sender,side,ammount,price));\n        if(side==Side.BUY){\n            for(uint256 i=0;i<_order.length-1;i++){\n                for(uint256 j=0;j<_order.length-1-i;j++){\n                    if(_order[j].price<_order[j+1].price){\n                        Order memory temp=_order[j];\n                        _order[j]=_order[j+1];\n                        _order[j+1]=temp;\n                    }\n                }\n            }\n        }\n        else{\n            for(uint256 i=0;i<_order.length-1;i++){\n                for(uint256 j=0;j<_order.length-1-i;j++){\n                    if(_order[j].price>_order[j+1].price){\n                        Order memory temp=_order[j];\n                        _order[j]=_order[j+1];\n                        _order[j+1]=temp;\n                    }\n                }\n            }\n        }\n    }\n}",
  "sourcePath": "/home/madan/Documents/Blockchain/KuberSwap/contracts/Dex.sol",
  "compiler": {
    "name": "solc",
    "version": "0.7.6+commit.7338295f.Emscripten.clang"
  },
  "schemaVersion": "3.3.4",
  "updatedAt": "2021-03-17T15:37:03.894Z",
  "networkType": "ethereum",
  "devdoc": {
    "kind": "dev",
    "methods": {
      "owner()": {
        "details": "Returns the address of the current owner."
      },
      "renounceOwnership()": {
        "details": "Leaves the contract without owner. It will not be possible to call `onlyOwner` functions anymore. Can only be called by the current owner. NOTE: Renouncing ownership will leave the contract without an owner, thereby removing any functionality that is only available to the owner."
      },
      "transferOwnership(address)": {
        "details": "Transfers ownership of the contract to a new account (`newOwner`). Can only be called by the current owner."
      }
    },
    "version": 1
  },
  "userdoc": {
    "kind": "user",
    "methods": {},
    "version": 1
  }
}