{
  "contractName": "Dex",
  "abi": [
    {
      "anonymous": false,
      "inputs": [
        {
          "indexed": true,
          "internalType": "address",
          "name": "previousOwner",
          "type": "address"
        },
        {
          "indexed": true,
          "internalType": "address",
          "name": "newOwner",
          "type": "address"
        }
      ],
      "name": "OwnershipTransferred",
      "type": "event"
    },
    {
      "inputs": [
        {
          "internalType": "bytes32",
          "name": "_ticker",
          "type": "bytes32"
        },
        {
          "internalType": "uint256",
          "name": "_ammount",
          "type": "uint256"
        }
      ],
      "name": "Deposit",
      "outputs": [],
      "stateMutability": "nonpayable",
      "type": "function"
    },
    {
      "inputs": [
        {
          "internalType": "bytes32",
          "name": "_ticker",
          "type": "bytes32"
        },
        {
          "internalType": "address",
          "name": "_tokenAddress",
          "type": "address"
        }
      ],
      "name": "addToken",
      "outputs": [],
      "stateMutability": "nonpayable",
      "type": "function"
    },
    {
      "inputs": [
        {
          "internalType": "address",
          "name": "",
          "type": "address"
        },
        {
          "internalType": "bytes32",
          "name": "",
          "type": "bytes32"
        }
      ],
      "name": "balances",
      "outputs": [
        {
          "internalType": "uint256",
          "name": "",
          "type": "uint256"
        }
      ],
      "stateMutability": "view",
      "type": "function"
    },
    {
      "inputs": [],
      "name": "depositEth",
      "outputs": [],
      "stateMutability": "payable",
      "type": "function"
    },
    {
      "inputs": [
        {
          "internalType": "bytes32",
          "name": "",
          "type": "bytes32"
        },
        {
          "internalType": "uint256",
          "name": "",
          "type": "uint256"
        },
        {
          "internalType": "uint256",
          "name": "",
          "type": "uint256"
        }
      ],
      "name": "orderBook",
      "outputs": [
        {
          "internalType": "uint256",
          "name": "id",
          "type": "uint256"
        },
        {
          "internalType": "address",
          "name": "trader",
          "type": "address"
        },
        {
          "internalType": "enum Dex.Side",
          "name": "side",
          "type": "uint8"
        },
        {
          "internalType": "uint256",
          "name": "ammount",
          "type": "uint256"
        },
        {
          "internalType": "uint256",
          "name": "price",
          "type": "uint256"
        },
        {
          "internalType": "uint256",
          "name": "filled",
          "type": "uint256"
        }
      ],
      "stateMutability": "view",
      "type": "function"
    },
    {
      "inputs": [],
      "name": "owner",
      "outputs": [
        {
          "internalType": "address",
          "name": "",
          "type": "address"
        }
      ],
      "stateMutability": "view",
      "type": "function"
    },
    {
      "inputs": [],
      "name": "renounceOwnership",
      "outputs": [],
      "stateMutability": "nonpayable",
      "type": "function"
    },
    {
      "inputs": [
        {
          "internalType": "uint256",
          "name": "",
          "type": "uint256"
        }
      ],
      "name": "tokenList",
      "outputs": [
        {
          "internalType": "bytes32",
          "name": "",
          "type": "bytes32"
        }
      ],
      "stateMutability": "view",
      "type": "function"
    },
    {
      "inputs": [
        {
          "internalType": "bytes32",
          "name": "",
          "type": "bytes32"
        }
      ],
      "name": "tokenMapping",
      "outputs": [
        {
          "internalType": "bytes32",
          "name": "ticker",
          "type": "bytes32"
        },
        {
          "internalType": "address",
          "name": "tokenAddress",
          "type": "address"
        }
      ],
      "stateMutability": "view",
      "type": "function"
    },
    {
      "inputs": [
        {
          "internalType": "address",
          "name": "newOwner",
          "type": "address"
        }
      ],
      "name": "transferOwnership",
      "outputs": [],
      "stateMutability": "nonpayable",
      "type": "function"
    },
    {
      "inputs": [],
      "name": "unique_id",
      "outputs": [
        {
          "internalType": "uint256",
          "name": "",
          "type": "uint256"
        }
      ],
      "stateMutability": "view",
      "type": "function"
    },
    {
      "inputs": [
        {
          "internalType": "uint256",
          "name": "ammount",
          "type": "uint256"
        },
        {
          "internalType": "bytes32",
          "name": "ticker",
          "type": "bytes32"
        }
      ],
      "name": "withdraw",
      "outputs": [],
      "stateMutability": "nonpayable",
      "type": "function"
    },
    {
      "inputs": [
        {
          "internalType": "bytes32",
          "name": "ticker",
          "type": "bytes32"
        },
        {
          "internalType": "enum Dex.Side",
          "name": "side",
          "type": "uint8"
        }
      ],
      "name": "getOrderBook",
      "outputs": [
        {
          "components": [
            {
              "internalType": "uint256",
              "name": "id",
              "type": "uint256"
            },
            {
              "internalType": "address",
              "name": "trader",
              "type": "address"
            },
            {
              "internalType": "enum Dex.Side",
              "name": "side",
              "type": "uint8"
            },
            {
              "internalType": "uint256",
              "name": "ammount",
              "type": "uint256"
            },
            {
              "internalType": "uint256",
              "name": "price",
              "type": "uint256"
            },
            {
              "internalType": "uint256",
              "name": "filled",
              "type": "uint256"
            }
          ],
          "internalType": "struct Dex.Order[]",
          "name": "",
          "type": "tuple[]"
        }
      ],
      "stateMutability": "view",
      "type": "function"
    },
    {
      "inputs": [
        {
          "internalType": "enum Dex.Side",
          "name": "side",
          "type": "uint8"
        },
        {
          "internalType": "bytes32",
          "name": "ticker",
          "type": "bytes32"
        },
        {
          "internalType": "uint256",
          "name": "ammount",
          "type": "uint256"
        },
        {
          "internalType": "uint256",
          "name": "price",
          "type": "uint256"
        }
      ],
      "name": "createLimitOrder",
      "outputs": [],
      "stateMutability": "nonpayable",
      "type": "function"
    },
    {
      "inputs": [
        {
          "internalType": "enum Dex.Side",
          "name": "side",
          "type": "uint8"
        },
        {
          "internalType": "bytes32",
          "name": "ticker",
          "type": "bytes32"
        },
        {
          "internalType": "uint256",
          "name": "ammount",
          "type": "uint256"
        }
      ],
      "name": "createMarketOrder",
      "outputs": [],
      "stateMutability": "nonpayable",
      "type": "function"
    }
  ],
  "bytecode": "0x6080604052600060045534801561001557600080fd5b5060006100266100c960201b60201c565b9050806000806101000a81548173ffffffffffffffffffffffffffffffffffffffff021916908373ffffffffffffffffffffffffffffffffffffffff1602179055508073ffffffffffffffffffffffffffffffffffffffff16600073ffffffffffffffffffffffffffffffffffffffff167f8be0079c531659141344cd1fd0a4f28419497f9722a3daafe3b4186f6b6457e060405160405180910390a3506100d1565b600033905090565b6130a580620000e16000396000f3fe6080604052600436106100e85760003560e01c80639776aacf1161008a578063a8d2021a11610059578063a8d2021a146102d7578063ba58ea6814610300578063d2e9dab81461033d578063f2fde38b14610368576100e8565b80639776aacf1461021f57806398e783c31461024857806399ec2f1c146102715780639ead72221461029a576100e8565b8063667cb4ba116100c6578063667cb4ba146101765780636f3b62f9146101b4578063715018a6146101dd5780638da5cb5b146101f4576100e8565b80630bb431b6146100ed5780631f14df691461012f578063439370b11461016c575b600080fd5b3480156100f957600080fd5b50610114600480360381019061010f9190612b5c565b610391565b60405161012696959493929190612eb8565b60405180910390f35b34801561013b57600080fd5b5061015660048036038101906101519190612a43565b610424565b6040516101639190612e9d565b60405180910390f35b610174610449565b005b34801561018257600080fd5b5061019d60048036038101906101989190612a7f565b610542565b6040516101ab929190612e74565b60405180910390f35b3480156101c057600080fd5b506101db60048036038101906101d69190612bfa565b610586565b005b3480156101e957600080fd5b506101f2610e66565b005b34801561020057600080fd5b50610209610fd3565b6040516102169190612e1c565b60405180910390f35b34801561022b57600080fd5b5061024660048036038101906102419190612aa8565b610ffc565b005b34801561025457600080fd5b5061026f600480360381019061026a9190612b20565b61116a565b005b34801561027d57600080fd5b5061029860048036038101906102939190612bab565b6113ff565b005b3480156102a657600080fd5b506102c160048036038101906102bc9190612c5d565b61219a565b6040516102ce9190612e59565b60405180910390f35b3480156102e357600080fd5b506102fe60048036038101906102f99190612c86565b6121be565b005b34801561030c57600080fd5b5061032760048036038101906103229190612ae4565b6124fb565b6040516103349190612e37565b60405180910390f35b34801561034957600080fd5b50610352612635565b60405161035f9190612e9d565b60405180910390f35b34801561037457600080fd5b5061038f600480360381019061038a9190612a1a565b61263b565b005b600560205282600052604060002060205281600052604060002081815481106103b957600080fd5b906000526020600020906005020160009250925050508060000154908060010160009054906101000a900473ffffffffffffffffffffffffffffffffffffffff16908060010160149054906101000a900460ff16908060020154908060030154908060040154905086565b6003602052816000526040600020602052806000526040600020600091509150505481565b6104cc34600360003373ffffffffffffffffffffffffffffffffffffffff1673ffffffffffffffffffffffffffffffffffffffff16815260200190815260200160002060007f455448000000000000000000000000000000000000000000000000000000000081526020019081526020016000205461282d90919063ffffffff16565b600360003373ffffffffffffffffffffffffffffffffffffffff1673ffffffffffffffffffffffffffffffffffffffff16815260200190815260200160002060007f4554480000000000000000000000000000000000000000000000000000000000815260200190815260200160002081905550565b60016020528060005260406000206000915090508060000154908060010160009054906101000a900473ffffffffffffffffffffffffffffffffffffffff16905082565b6000600181111561059357fe5b84600181111561059f57fe5b1415610639576105b881836128b590919063ffffffff16565b600360003373ffffffffffffffffffffffffffffffffffffffff1673ffffffffffffffffffffffffffffffffffffffff16815260200190815260200160002060007f4554480000000000000000000000000000000000000000000000000000000000815260200190815260200160002054101561063457600080fd5b6106b6565b60018081111561064557fe5b84600181111561065157fe5b14156106b55781600360003373ffffffffffffffffffffffffffffffffffffffff1673ffffffffffffffffffffffffffffffffffffffff16815260200190815260200160002060008581526020019081526020016000205410156106b457600080fd5b5b5b60006005600085815260200190815260200160002060008660018111156106d957fe5b81526020019081526020016000209050806040518060c0016040528060045481526020013373ffffffffffffffffffffffffffffffffffffffff16815260200187600181111561072557fe5b8152602001858152602001848152602001600081525090806001815401808255809150506001900390600052602060002090600502016000909190919091506000820151816000015560208201518160010160006101000a81548173ffffffffffffffffffffffffffffffffffffffff021916908373ffffffffffffffffffffffffffffffffffffffff16021790555060408201518160010160146101000a81548160ff021916908360018111156107d957fe5b0217905550606082015181600201556080820151816003015560a0820151816004015550506004600081548092919060010191905055506000600181111561081d57fe5b85600181111561082957fe5b1415610b495760005b6001828054905003811015610b435760005b81600184805490500303811015610b355782600182018154811061086457fe5b90600052602060002090600502016003015483828154811061088257fe5b9060005260206000209060050201600301541015610b285760008382815481106108a857fe5b90600052602060002090600502016040518060c0016040529081600082015481526020016001820160009054906101000a900473ffffffffffffffffffffffffffffffffffffffff1673ffffffffffffffffffffffffffffffffffffffff1673ffffffffffffffffffffffffffffffffffffffff1681526020016001820160149054906101000a900460ff16600181111561093f57fe5b600181111561094a57fe5b81526020016002820154815260200160038201548152602001600482015481525050905083600183018154811061097d57fe5b906000526020600020906005020184838154811061099757fe5b9060005260206000209060050201600082015481600001556001820160009054906101000a900473ffffffffffffffffffffffffffffffffffffffff168160010160006101000a81548173ffffffffffffffffffffffffffffffffffffffff021916908373ffffffffffffffffffffffffffffffffffffffff1602179055506001820160149054906101000a900460ff168160010160146101000a81548160ff02191690836001811115610a4757fe5b021790555060028201548160020155600382015481600301556004820154816004015590505080846001840181548110610a7d57fe5b90600052602060002090600502016000820151816000015560208201518160010160006101000a81548173ffffffffffffffffffffffffffffffffffffffff021916908373ffffffffffffffffffffffffffffffffffffffff16021790555060408201518160010160146101000a81548160ff02191690836001811115610b0057fe5b0217905550606082015181600201556080820151816003015560a08201518160040155905050505b8080600101915050610844565b508080600101915050610832565b50610e5f565b60005b6001828054905003811015610e5d5760005b81600184805490500303811015610e4f57826001820181548110610b7e57fe5b906000526020600020906005020160030154838281548110610b9c57fe5b9060005260206000209060050201600301541115610e42576000838281548110610bc257fe5b90600052602060002090600502016040518060c0016040529081600082015481526020016001820160009054906101000a900473ffffffffffffffffffffffffffffffffffffffff1673ffffffffffffffffffffffffffffffffffffffff1673ffffffffffffffffffffffffffffffffffffffff1681526020016001820160149054906101000a900460ff166001811115610c5957fe5b6001811115610c6457fe5b815260200160028201548152602001600382015481526020016004820154815250509050836001830181548110610c9757fe5b9060005260206000209060050201848381548110610cb157fe5b9060005260206000209060050201600082015481600001556001820160009054906101000a900473ffffffffffffffffffffffffffffffffffffffff168160010160006101000a81548173ffffffffffffffffffffffffffffffffffffffff021916908373ffffffffffffffffffffffffffffffffffffffff1602179055506001820160149054906101000a900460ff168160010160146101000a81548160ff02191690836001811115610d6157fe5b021790555060028201548160020155600382015481600301556004820154816004015590505080846001840181548110610d9757fe5b90600052602060002090600502016000820151816000015560208201518160010160006101000a81548173ffffffffffffffffffffffffffffffffffffffff021916908373ffffffffffffffffffffffffffffffffffffffff16021790555060408201518160010160146101000a81548160ff02191690836001811115610e1a57fe5b0217905550606082015181600201556080820151816003015560a08201518160040155905050505b8080600101915050610b5e565b508080600101915050610b4c565b505b5050505050565b610e6e61293b565b73ffffffffffffffffffffffffffffffffffffffff16610e8c610fd3565b73ffffffffffffffffffffffffffffffffffffffff1614610f15576040517f08c379a00000000000000000000000000000000000000000000000000000000081526004018080602001828103825260208152602001807f4f776e61626c653a2063616c6c6572206973206e6f7420746865206f776e657281525060200191505060405180910390fd5b600073ffffffffffffffffffffffffffffffffffffffff1660008054906101000a900473ffffffffffffffffffffffffffffffffffffffff1673ffffffffffffffffffffffffffffffffffffffff167f8be0079c531659141344cd1fd0a4f28419497f9722a3daafe3b4186f6b6457e060405160405180910390a360008060006101000a81548173ffffffffffffffffffffffffffffffffffffffff021916908373ffffffffffffffffffffffffffffffffffffffff160217905550565b60008060009054906101000a900473ffffffffffffffffffffffffffffffffffffffff16905090565b61100461293b565b73ffffffffffffffffffffffffffffffffffffffff16611022610fd3565b73ffffffffffffffffffffffffffffffffffffffff16146110ab576040517f08c379a00000000000000000000000000000000000000000000000000000000081526004018080602001828103825260208152602001807f4f776e61626c653a2063616c6c6572206973206e6f7420746865206f776e657281525060200191505060405180910390fd5b60405180604001604052808381526020018273ffffffffffffffffffffffffffffffffffffffff16815250600160008481526020019081526020016000206000820151816000015560208201518160010160006101000a81548173ffffffffffffffffffffffffffffffffffffffff021916908373ffffffffffffffffffffffffffffffffffffffff16021790555090505060028290806001815401808255809150506001900390600052602060002001600090919091909150555050565b600073ffffffffffffffffffffffffffffffffffffffff166001600084815260200190815260200160002060010160009054906101000a900473ffffffffffffffffffffffffffffffffffffffff1673ffffffffffffffffffffffffffffffffffffffff161415611243576040517f08c379a00000000000000000000000000000000000000000000000000000000081526004018080602001828103825260138152602001807f746f6b656e206973206e6f74206c69737465640000000000000000000000000081525060200191505060405180910390fd5b6001600083815260200190815260200160002060010160009054906101000a900473ffffffffffffffffffffffffffffffffffffffff1673ffffffffffffffffffffffffffffffffffffffff166323b872dd3330846040518463ffffffff1660e01b8152600401808473ffffffffffffffffffffffffffffffffffffffff1681526020018373ffffffffffffffffffffffffffffffffffffffff1681526020018281526020019350505050602060405180830381600087803b15801561130857600080fd5b505af115801561131c573d6000803e3d6000fd5b505050506040513d602081101561133257600080fd5b8101908080519060200190929190505050506113a781600360003373ffffffffffffffffffffffffffffffffffffffff1673ffffffffffffffffffffffffffffffffffffffff16815260200190815260200160002060008581526020019081526020016000205461282d90919063ffffffff16565b600360003373ffffffffffffffffffffffffffffffffffffffff1673ffffffffffffffffffffffffffffffffffffffff1681526020019081526020016000206000848152602001908152602001600020819055505050565b60018081111561140b57fe5b83600181111561141757fe5b141561147b57600360003373ffffffffffffffffffffffffffffffffffffffff1673ffffffffffffffffffffffffffffffffffffffff16815260200190815260200160002060008381526020019081526020016000205481111561147a57600080fd5b5b600060056000848152602001908152602001600020600085600181111561149e57fe5b600103815260200190815260200160002090506000805b8280549050811080156114c757508382105b15611f9b5760006114e1838661294390919063ffffffff16565b905060006115328584815481106114f457fe5b90600052602060002090600502016004015486858154811061151257fe5b90600052602060002090600502016002015461294390919063ffffffff16565b90506000828211156115465782905061154a565b8190505b61155d818661282d90919063ffffffff16565b945061158f8187868154811061156f57fe5b90600052602060002090600502016004015461294390919063ffffffff16565b86858154811061159b57fe5b906000526020600020906005020160040181905550600060018111156115bd57fe5b8960018111156115c957fe5b1415611b05576115ff8685815481106115de57fe5b906000526020600020906005020160030154826128b590919063ffffffff16565b600360003373ffffffffffffffffffffffffffffffffffffffff1673ffffffffffffffffffffffffffffffffffffffff16815260200190815260200160002060007f4554480000000000000000000000000000000000000000000000000000000000815260200190815260200160002054101561167b57600080fd5b6116de81600360003373ffffffffffffffffffffffffffffffffffffffff1673ffffffffffffffffffffffffffffffffffffffff16815260200190815260200160002060008b81526020019081526020016000205461282d90919063ffffffff16565b600360003373ffffffffffffffffffffffffffffffffffffffff1673ffffffffffffffffffffffffffffffffffffffff16815260200190815260200160002060008a815260200190815260200160002081905550600061176487868154811061174357fe5b906000526020600020906005020160030154836128b590919063ffffffff16565b90506117e981600360003373ffffffffffffffffffffffffffffffffffffffff1673ffffffffffffffffffffffffffffffffffffffff16815260200190815260200160002060007f455448000000000000000000000000000000000000000000000000000000000081526020019081526020016000205461294390919063ffffffff16565b600360003373ffffffffffffffffffffffffffffffffffffffff1673ffffffffffffffffffffffffffffffffffffffff16815260200190815260200160002060007f45544800000000000000000000000000000000000000000000000000000000008152602001908152602001600020819055506118fd82600360008a898154811061187157fe5b906000526020600020906005020160010160009054906101000a900473ffffffffffffffffffffffffffffffffffffffff1673ffffffffffffffffffffffffffffffffffffffff1673ffffffffffffffffffffffffffffffffffffffff16815260200190815260200160002060008c81526020019081526020016000205461294390919063ffffffff16565b6003600089888154811061190d57fe5b906000526020600020906005020160010160009054906101000a900473ffffffffffffffffffffffffffffffffffffffff1673ffffffffffffffffffffffffffffffffffffffff1673ffffffffffffffffffffffffffffffffffffffff16815260200190815260200160002060008b815260200190815260200160002081905550611a4e81600360008a89815481106119a257fe5b906000526020600020906005020160010160009054906101000a900473ffffffffffffffffffffffffffffffffffffffff1673ffffffffffffffffffffffffffffffffffffffff1673ffffffffffffffffffffffffffffffffffffffff16815260200190815260200160002060007f455448000000000000000000000000000000000000000000000000000000000081526020019081526020016000205461282d90919063ffffffff16565b60036000898881548110611a5e57fe5b906000526020600020906005020160010160009054906101000a900473ffffffffffffffffffffffffffffffffffffffff1673ffffffffffffffffffffffffffffffffffffffff1673ffffffffffffffffffffffffffffffffffffffff16815260200190815260200160002060007f455448000000000000000000000000000000000000000000000000000000000081526020019081526020016000208190555050611f8b565b611b6881600360003373ffffffffffffffffffffffffffffffffffffffff1673ffffffffffffffffffffffffffffffffffffffff16815260200190815260200160002060008b81526020019081526020016000205461294390919063ffffffff16565b600360003373ffffffffffffffffffffffffffffffffffffffff1673ffffffffffffffffffffffffffffffffffffffff16815260200190815260200160002060008a8152602001908152602001600020819055506000611bee878681548110611bcd57fe5b906000526020600020906005020160030154836128b590919063ffffffff16565b9050611c7381600360003373ffffffffffffffffffffffffffffffffffffffff1673ffffffffffffffffffffffffffffffffffffffff16815260200190815260200160002060007f455448000000000000000000000000000000000000000000000000000000000081526020019081526020016000205461282d90919063ffffffff16565b600360003373ffffffffffffffffffffffffffffffffffffffff1673ffffffffffffffffffffffffffffffffffffffff16815260200190815260200160002060007f4554480000000000000000000000000000000000000000000000000000000000815260200190815260200160002081905550611d8782600360008a8981548110611cfb57fe5b906000526020600020906005020160010160009054906101000a900473ffffffffffffffffffffffffffffffffffffffff1673ffffffffffffffffffffffffffffffffffffffff1673ffffffffffffffffffffffffffffffffffffffff16815260200190815260200160002060008c81526020019081526020016000205461282d90919063ffffffff16565b60036000898881548110611d9757fe5b906000526020600020906005020160010160009054906101000a900473ffffffffffffffffffffffffffffffffffffffff1673ffffffffffffffffffffffffffffffffffffffff1673ffffffffffffffffffffffffffffffffffffffff16815260200190815260200160002060008b815260200190815260200160002081905550611ed881600360008a8981548110611e2c57fe5b906000526020600020906005020160010160009054906101000a900473ffffffffffffffffffffffffffffffffffffffff1673ffffffffffffffffffffffffffffffffffffffff1673ffffffffffffffffffffffffffffffffffffffff16815260200190815260200160002060007f455448000000000000000000000000000000000000000000000000000000000081526020019081526020016000205461294390919063ffffffff16565b60036000898881548110611ee857fe5b906000526020600020906005020160010160009054906101000a900473ffffffffffffffffffffffffffffffffffffffff1673ffffffffffffffffffffffffffffffffffffffff1673ffffffffffffffffffffffffffffffffffffffff16815260200190815260200160002060007f4554480000000000000000000000000000000000000000000000000000000000815260200190815260200160002081905550505b50505080806001019150506114b5565b505b60008280549050118015611fec575081600081548110611fb957fe5b90600052602060002090600502016002015482600081548110611fd857fe5b906000526020600020906005020160040154145b156121935760005b600183805490500381101561210f5782600182018154811061201257fe5b906000526020600020906005020183828154811061202c57fe5b9060005260206000209060050201600082015481600001556001820160009054906101000a900473ffffffffffffffffffffffffffffffffffffffff168160010160006101000a81548173ffffffffffffffffffffffffffffffffffffffff021916908373ffffffffffffffffffffffffffffffffffffffff1602179055506001820160149054906101000a900460ff168160010160146101000a81548160ff021916908360018111156120dc57fe5b02179055506002820154816002015560038201548160030155600482015481600401559050508080600101915050611ff4565b508180548061211a57fe5b60019003818190600052602060002090600502016000808201600090556001820160006101000a81549073ffffffffffffffffffffffffffffffffffffffff02191690556001820160146101000a81549060ff021916905560028201600090556003820160009055600482016000905550509055611f9d565b5050505050565b600281815481106121aa57600080fd5b906000526020600020016000915090505481565b600073ffffffffffffffffffffffffffffffffffffffff166001600083815260200190815260200160002060010160009054906101000a900473ffffffffffffffffffffffffffffffffffffffff1673ffffffffffffffffffffffffffffffffffffffff161415612297576040517f08c379a00000000000000000000000000000000000000000000000000000000081526004018080602001828103825260138152602001807f746f6b656e206973206e6f74206c69737465640000000000000000000000000081525060200191505060405180910390fd5b81600360003373ffffffffffffffffffffffffffffffffffffffff1673ffffffffffffffffffffffffffffffffffffffff168152602001908152602001600020600083815260200190815260200160002054101561235d576040517f08c379a00000000000000000000000000000000000000000000000000000000081526004018080602001828103825260198152602001807f62616c616e6365206973206e6f742073756666696369656e740000000000000081525060200191505060405180910390fd5b6123c082600360003373ffffffffffffffffffffffffffffffffffffffff1673ffffffffffffffffffffffffffffffffffffffff16815260200190815260200160002060008481526020019081526020016000205461294390919063ffffffff16565b600360003373ffffffffffffffffffffffffffffffffffffffff1673ffffffffffffffffffffffffffffffffffffffff1681526020019081526020016000206000838152602001908152602001600020819055506001600082815260200190815260200160002060010160009054906101000a900473ffffffffffffffffffffffffffffffffffffffff1673ffffffffffffffffffffffffffffffffffffffff1663a9059cbb33846040518363ffffffff1660e01b8152600401808373ffffffffffffffffffffffffffffffffffffffff16815260200182815260200192505050602060405180830381600087803b1580156124bb57600080fd5b505af11580156124cf573d6000803e3d6000fd5b505050506040513d60208110156124e557600080fd5b8101908080519060200190929190505050505050565b606060056000848152602001908152602001600020600083600181111561251e57fe5b8152602001908152602001600020805480602002602001604051908101604052809291908181526020016000905b8282101561262957838290600052602060002090600502016040518060c0016040529081600082015481526020016001820160009054906101000a900473ffffffffffffffffffffffffffffffffffffffff1673ffffffffffffffffffffffffffffffffffffffff1673ffffffffffffffffffffffffffffffffffffffff1681526020016001820160149054906101000a900460ff1660018111156125ed57fe5b60018111156125f857fe5b815260200160028201548152602001600382015481526020016004820154815250508152602001906001019061254c565b50505050905092915050565b60045481565b61264361293b565b73ffffffffffffffffffffffffffffffffffffffff16612661610fd3565b73ffffffffffffffffffffffffffffffffffffffff16146126ea576040517f08c379a00000000000000000000000000000000000000000000000000000000081526004018080602001828103825260208152602001807f4f776e61626c653a2063616c6c6572206973206e6f7420746865206f776e657281525060200191505060405180910390fd5b600073ffffffffffffffffffffffffffffffffffffffff168173ffffffffffffffffffffffffffffffffffffffff161415612770576040517f08c379a00000000000000000000000000000000000000000000000000000000081526004018080602001828103825260268152602001806130296026913960400191505060405180910390fd5b8073ffffffffffffffffffffffffffffffffffffffff1660008054906101000a900473ffffffffffffffffffffffffffffffffffffffff1673ffffffffffffffffffffffffffffffffffffffff167f8be0079c531659141344cd1fd0a4f28419497f9722a3daafe3b4186f6b6457e060405160405180910390a3806000806101000a81548173ffffffffffffffffffffffffffffffffffffffff021916908373ffffffffffffffffffffffffffffffffffffffff16021790555050565b6000808284019050838110156128ab576040517f08c379a000000000000000000000000000000000000000000000000000000000815260040180806020018281038252601b8152602001807f536166654d6174683a206164646974696f6e206f766572666c6f77000000000081525060200191505060405180910390fd5b8091505092915050565b6000808314156128c85760009050612935565b60008284029050828482816128d957fe5b0414612930576040517f08c379a000000000000000000000000000000000000000000000000000000000815260040180806020018281038252602181526020018061304f6021913960400191505060405180910390fd5b809150505b92915050565b600033905090565b6000828211156129bb576040517f08c379a000000000000000000000000000000000000000000000000000000000815260040180806020018281038252601e8152602001807f536166654d6174683a207375627472616374696f6e206f766572666c6f77000081525060200191505060405180910390fd5b818303905092915050565b6000813590506129d581612fd3565b92915050565b6000813590506129ea81612fea565b92915050565b6000813590506129ff81613001565b92915050565b600081359050612a1481613011565b92915050565b600060208284031215612a2c57600080fd5b6000612a3a848285016129c6565b91505092915050565b60008060408385031215612a5657600080fd5b6000612a64858286016129c6565b9250506020612a75858286016129db565b9150509250929050565b600060208284031215612a9157600080fd5b6000612a9f848285016129db565b91505092915050565b60008060408385031215612abb57600080fd5b6000612ac9858286016129db565b9250506020612ada858286016129c6565b9150509250929050565b60008060408385031215612af757600080fd5b6000612b05858286016129db565b9250506020612b16858286016129f0565b9150509250929050565b60008060408385031215612b3357600080fd5b6000612b41858286016129db565b9250506020612b5285828601612a05565b9150509250929050565b600080600060608486031215612b7157600080fd5b6000612b7f868287016129db565b9350506020612b9086828701612a05565b9250506040612ba186828701612a05565b9150509250925092565b600080600060608486031215612bc057600080fd5b6000612bce868287016129f0565b9350506020612bdf868287016129db565b9250506040612bf086828701612a05565b9150509250925092565b60008060008060808587031215612c1057600080fd5b6000612c1e878288016129f0565b9450506020612c2f878288016129db565b9350506040612c4087828801612a05565b9250506060612c5187828801612a05565b91505092959194509250565b600060208284031215612c6f57600080fd5b6000612c7d84828501612a05565b91505092915050565b60008060408385031215612c9957600080fd5b6000612ca785828601612a05565b9250506020612cb8858286016129db565b9150509250929050565b6000612cce8383612d83565b60c08301905092915050565b612ce381612f52565b82525050565b612cf281612f52565b82525050565b6000612d0382612f29565b612d0d8185612f41565b9350612d1883612f19565b8060005b83811015612d49578151612d308882612cc2565b9750612d3b83612f34565b925050600181019050612d1c565b5085935050505092915050565b612d5f81612f64565b82525050565b612d6e81612fab565b82525050565b612d7d81612fab565b82525050565b60c082016000820151612d996000850182612dfe565b506020820151612dac6020850182612cda565b506040820151612dbf6040850182612d65565b506060820151612dd26060850182612dfe565b506080820151612de56080850182612dfe565b5060a0820151612df860a0850182612dfe565b50505050565b612e0781612fa1565b82525050565b612e1681612fa1565b82525050565b6000602082019050612e316000830184612ce9565b92915050565b60006020820190508181036000830152612e518184612cf8565b905092915050565b6000602082019050612e6e6000830184612d56565b92915050565b6000604082019050612e896000830185612d56565b612e966020830184612ce9565b9392505050565b6000602082019050612eb26000830184612e0d565b92915050565b600060c082019050612ecd6000830189612e0d565b612eda6020830188612ce9565b612ee76040830187612d74565b612ef46060830186612e0d565b612f016080830185612e0d565b612f0e60a0830184612e0d565b979650505050505050565b6000819050602082019050919050565b600081519050919050565b6000602082019050919050565b600082825260208201905092915050565b6000612f5d82612f81565b9050919050565b6000819050919050565b6000819050612f7c82612fbf565b919050565b600073ffffffffffffffffffffffffffffffffffffffff82169050919050565b6000819050919050565b6000612fb682612f6e565b9050919050565bfe5b60028110612fd057612fcf612fbd565b5b50565b612fdc81612f52565b8114612fe757600080fd5b50565b612ff381612f64565b8114612ffe57600080fd5b50565b6002811061300e57600080fd5b50565b61301a81612fa1565b811461302557600080fd5b5056fe4f776e61626c653a206e6577206f776e657220697320746865207a65726f2061646472657373536166654d6174683a206d756c7469706c69636174696f6e206f766572666c6f77a264697066735822122078e79a42822add0da35e66afe98092fa3bb450fca524a42d64c53e210c1c9d1464736f6c63430007060033",
  "immutableReferences": {},
  "source": "pragma solidity >=0.6.0 <0.8.0;\npragma experimental ABIEncoderV2;\nimport './Wallet.sol';\nimport '../node_modules/@openzeppelin/contracts/math/SafeMath.sol';\ncontract Dex is Wallet{\n    using SafeMath for uint256;\n    enum Side{\n        BUY,\n        SELL\n    }\n    uint256 public unique_id=0;\n    struct Order{\n        uint id;\n        address trader;\n        Side side;\n        uint ammount;\n        uint price;\n        uint filled;\n    }\n    mapping(bytes32=>mapping(uint=>Order[])) public orderBook;\n    function getOrderBook(bytes32 ticker,Side side) public view returns(Order[] memory){\n        return orderBook[ticker][uint(side)];\n    }\n    function createLimitOrder(Side side,bytes32 ticker,uint ammount,uint price) public{\n        if(side==Side.BUY){\n            require(balances[msg.sender]['ETH']>=ammount.mul(price));\n        }\n        else if(side==Side.SELL){\n            require(balances[msg.sender][ticker]>=ammount);\n        }\n        Order[] storage _order=orderBook[ticker][uint(side)];\n        _order.push(Order(unique_id,msg.sender,side,ammount,price,0));\n        unique_id++;\n        if(side==Side.BUY){\n            for(uint256 i=0;i<_order.length-1;i++){\n                for(uint256 j=0;j<_order.length-1-i;j++){\n                    if(_order[j].price<_order[j+1].price){\n                        Order memory temp=_order[j];\n                        _order[j]=_order[j+1];\n                        _order[j+1]=temp;\n                    }\n                }\n            }\n        }\n        else{\n            for(uint256 i=0;i<_order.length-1;i++){\n                for(uint256 j=0;j<_order.length-1-i;j++){\n                    if(_order[j].price>_order[j+1].price){\n                        Order memory temp=_order[j];\n                        _order[j]=_order[j+1];\n                        _order[j+1]=temp;\n                    }\n                }\n            }\n        }\n    }\n    function createMarketOrder(Side side,bytes32 ticker,uint ammount) public{\n        if(side==Side.SELL){\n            require(ammount<=balances[msg.sender][ticker]);\n        }\n        Order[] storage _orderbook=orderBook[ticker][1-uint(side)];\n        uint totalFilled=0;\n        for(uint i=0;i<_orderbook.length&& totalFilled<ammount;i++){\n            uint leftTofill=ammount.sub(totalFilled);\n            uint avaliableToFill=_orderbook[i].ammount.sub(_orderbook[i].filled);\n            uint filled=0;\n            if(avaliableToFill>leftTofill) {filled=leftTofill;}\n            else{filled=avaliableToFill;}\n            totalFilled=totalFilled.add(filled);\n            _orderbook[i].filled=_orderbook[i].filled.sub(filled);\n            if(side==Side.BUY){\n                require(balances[msg.sender]['ETH']>=filled.mul(_orderbook[i].price));\n                balances[msg.sender][ticker]=balances[msg.sender][ticker].add(filled);\n                uint cost=filled.mul(_orderbook[i].price);\n                balances[msg.sender]['ETH']=balances[msg.sender]['ETH'].sub(cost);\n\n                balances[_orderbook[i].trader][ticker]=balances[_orderbook[i].trader][ticker].sub(filled);\n                balances[_orderbook[i].trader]['ETH']=balances[_orderbook[i].trader]['ETH'].add(cost);\n            }\n            else\n            {\n                balances[msg.sender][ticker]=balances[msg.sender][ticker].sub(filled);\n                uint cost=filled.mul(_orderbook[i].price);\n                balances[msg.sender]['ETH']=balances[msg.sender]['ETH'].add(cost);\n                balances[_orderbook[i].trader][ticker]=balances[_orderbook[i].trader][ticker].add(filled);\n                balances[_orderbook[i].trader]['ETH']=balances[_orderbook[i].trader]['ETH'].sub(cost);\n            }\n        }\n        while(_orderbook.length>0&&_orderbook[0].filled==_orderbook[0].ammount){\n            for(uint i=0;i<_orderbook.length-1;i++){\n                _orderbook[i]=_orderbook[i+1];\n            }\n            _orderbook.pop();\n        }\n    }\n}",
  "sourcePath": "/home/madan/Documents/Blockchain/KuberSwap/contracts/Dex.sol",
  "compiler": {
    "name": "solc",
    "version": "0.7.6+commit.7338295f.Emscripten.clang"
  },
  "schemaVersion": "3.3.4",
  "updatedAt": "2021-03-19T12:07:01.753Z",
  "devdoc": {
    "kind": "dev",
    "methods": {
      "owner()": {
        "details": "Returns the address of the current owner."
      },
      "renounceOwnership()": {
        "details": "Leaves the contract without owner. It will not be possible to call `onlyOwner` functions anymore. Can only be called by the current owner. NOTE: Renouncing ownership will leave the contract without an owner, thereby removing any functionality that is only available to the owner."
      },
      "transferOwnership(address)": {
        "details": "Transfers ownership of the contract to a new account (`newOwner`). Can only be called by the current owner."
      }
    },
    "version": 1
  },
  "userdoc": {
    "kind": "user",
    "methods": {},
    "version": 1
  }
}